:020000041000EA
:1000000000B5324B212058609868022188439860DF
:10001000D860186158612E4B002199600221596106
:100020000121F02299502B49196001219960352056
:1000300000F044F80222904214D00621196600F024
:1000400034F8196E01211966002018661A6600F04E
:100050002CF8196E196E196E052000F02FF8012189
:100060000842F9D1002199601B49196000215960AB
:100070001A491B48016001219960EB211966A021F2
:10008000196600F012F800219960164914480160C1
:100090000121996001BC002800D000471248134993
:1000A000086003C880F30888084703B5996A0420EC
:1000B0000142FBD001200142F8D103BD02B5186610
:1000C0001866FFF7F2FF186E186E02BD00000240BE
:1000D000000000180000070000035F00212200005C
:1000E000F4000018222000A00001001008ED00E03C
:1000F00000000000000000000000000074B24E7A12
:1001000000200420F7010010C3010010C5010010F9
:10011000C1010010C1010010C1010010C101001097
:10012000C1010010C1010010C1010010C701001081
:10013000C1010010C1010010C9010010CB01001065
:10014000CD010010CD010010CD010010CD01001037
:10015000CD010010CD010010CD010010CD01001027
:10016000CD010010CD010010CD010010CD01001017
:10017000CD010010CD010010CD010010CD01001007
:10018000CD010010CD010010CD010010CD010010F7
:10019000CD010010CD010010CD010010CD010010E7
:1001A000CD010010CD010010CD010010CD010010D7
:1001B000CD010010CD010010CD010010CD010010C7
:1001C00000BE00BE00BE00BE00BE00BE00F04BF888
:1001D000103800BEF2EB887194AB0010B4AB001085
:1001E0003402001090A31AE700202149086006C8D5
:1001F00081F3088810471F48006800282FD10DA4FC
:100200000ECC002902D000F012F8F9E71A491B4A77
:10021000002000E001C19142FCD1194988471949E9
:1002200088471949884700BEFDE701C901C29A42C3
:10023000FBD37047B4AB0010C0000020E8040020DE
:10024000DCAF00100000042000000420DCAF001030
:1002500000100420001004200000000070470B482C
:1002600005F0C0F80047EFF30580C0B2704700000A
:1002700008ED00E0000000D0E8040020201300207A
:100280004D3500100D0300103D360010575600008C
:1002900006005250ABB3605358A9001006005250EC
:1002A000861C030268A90010060052505422A29D29
:1002B00070A9001005005250DE65F468DCAF001034
:1002C000F8B5C04610B5064C2378002B07D1054B76
:1002D000002B02D0044800E000BF0123237010BDB2
:1002E0000808002000000000B0A20010044B10B568
:1002F000002B03D00349044800E000BF10BDC046F6
:10030000000000000C080020B0A20010F0B5DE468E
:10031000454657464E46E0B587B007F019F907F055
:1003200093FABF4B9846002800D1187000F0B6FC35
:1003300000F0D0FE01F01AFEBA4B18689B4601F09F
:1003400047FD0A2000F054FC002800D160E1B64BC4
:10035000B64F9946B64BB74D9A46B74CB74E4B463B
:100360001B78002B00D130BF00F006FA00F05CFBD8
:1003700000F092F93B78DB0703D52B78082B00D1EE
:10038000F3E02378412B00D1D5E02378422B00D134
:10039000D9E02378432B03D1423B2B7000232370F9
:1003A0002378442B00D1A2E03B781B0700D5B0E0B6
:1003B0002B78072BD3D89B00F3589F4601F0C8FB3E
:1003C0009F4801F05DFA05232B70C8E72378442B82
:1003D000C5D1002359469B4A096813609A4A1160A7
:1003E000524623701360BAE7984B1B78002B00D05D
:1003F000C3E053461B68934A12689A42AFD801F093
:1004000001FE01F0A5FB924801F03AFA05232B709A
:10041000A5E701F0DDFD8D4B1B78002B9FD000225E
:100420008C4B1A705B46186801F05CFD002896D072
:100430005246844B12681B689A4290D20821864823
:1004400001F066FD00288AD0534652461B680833E7
:1004500013605B465A461B680833136004237E4AC8
:10046000D1797E48013BC154D1787D48013AC154CD
:10047000002BF5D1794B1868794B1B68039306F074
:10048000D3FD04900591039806F0CEFD049A059BD8
:1004900000900191734807F04FF801F0ABFD042381
:1004A0002B705CE73B785B0700D458E704223B786D
:1004B00093433B703B789B0700D450E73B78023A6C
:1004C00093433B7001F044FB0021674801F068F85A
:1004D0004021664801F064F8654B1B680393654B47
:1004E00003991B68181C049301F094FC37E7433B05
:1004F0002B703B781B070CD401F02AFB00215E48CF
:1005000001F04EF840215D4801F04AF805232B70B8
:1005100025E707232B7001F01BFB594801F0B0F9C8
:1005200005232B701BE701F013FB564801F0A8F9D7
:1005300008232B7013E72B78052B01D0237828E7AD
:10054000033B2B7025E72B78052B00D021E7534682
:100550001B68002B00D01CE743461B78002B4DD0B6
:1005600003232B700023237013E7073B2B702378A2
:10057000412B00D009E723780BE70022354B1A7096
:100580005B46186801F0AEFC53461B68002800D19A
:1005900031E72C4A1268934200D32CE708212E48F9
:1005A00001F0B6FC53461B68002800D123E75246F1
:1005B000083313605B465A461B68083313600423F4
:1005C000254AD1792548013BC154D1782448013AC4
:1005D000C154002BF5D1214B00681B68039306F032
:1005E00023FD04900591039806F01EFD049A059BD7
:1005F00000900191244806F09FFFFAE601F0A8FA66
:10060000224801F03DF907F01FF90028FBD0A7E7C9
:100610001F4806F0E9FE1F4806F0E6FEFEE7C0466A
:1006200014130020940C00201C0B0020200B002031
:10063000DC0D00201B1300201713002088A30010DE
:1006400074A30010D80D0020900C00201A13002075
:1006500054A300108F030020B81200209412002031
:100660007C12002044A3001034A300103CA300100F
:10067000680E00206C0E0020FCA2001018A30010D1
:1006800068A30010ECA200104CA30010E0A2001020
:10069000B0A20010CCA200102A4B10B51A78D207D5
:1006A0003DD501211A788A431A70274A1378013BF5
:1006B000DBB21370002B03D1244B1970C8231370C5
:1006C000234A1378013BDBB21370002B06D10420C0
:1006D00020490B7803430B70C82313701E4A1388FC
:1006E000013B9BB21380002B04D101211B4B1970DD
:1006F000642313801A4A1378013BDBB21370002B7A
:1007000003D1184B1A78002A0AD1174A1378013BF3
:10071000DBB21370002B02D10122144B1A7010BDF2
:1007200000221A7000F0C6FA0122114B1870114B0A
:100730001A700D4A1378013BDBB21370002BEED117
:10074000EAE7C0461C0B00208F0300201A1300208C
:1007500090030020200B002092030020191300209A
:10076000940300208E030020E003002013130020D8
:100770001713002018130020074B1A78920709D589
:1007800002211A788A431A700522044B1A70044B0E
:10079000043A1A707047C0461C0B002094030020D6
:1007A0008E030020994BF0B557469A46DE4600234B
:1007B00052464E464546E0B513600023944A83B046
:1007C0001360944A00901360437893462E2B02D115
:1007D00052462D3B1360009B9B782E2B02D1524634
:1007E0002C3B1360009BDB782E2B02D152462B3B17
:1007F0001360009B1B792E2B02D152462A3B1360BB
:10080000009B5B792E2B02D15246293B1360009B43
:100810009B792E2B02D15246283B1360009BDB793B
:100820002E2B02D15246273B1360009B1B7A2E2BA6
:1008300002D15246263B1360009B5B7A2E2B00D1DF
:10084000D2E0009B9B7A2E2B00D1BDE053461C6862
:10085000A31E98461E1E00DCD2E0009B9C461D0095
:1008600000236644181C6C4906F085FB0F23071C07
:1008700028780135184006F0B5FB391C06F064FBFA
:10088000AE42F0D1814643460F26009FF85C3040CF
:1008900006F0A8FB002106F057FB5D4B051C186015
:1008A0003B0043445878671C304006F09BFB5A4994
:1008B000061C281C06F05FFB011C301C06F044FBE4
:1008C000534A061C10600A2F00DD9CE0009B0025A7
:1008D00098460EE05049281C06F04DFB311C06F0EE
:1008E00033FB5B460137051C18600B2F31D0534694
:1008F0001C684346D85D0F23184006F073FB023492
:10090000061CBC42E6DA381B05F0B2F802000B0008
:100910000020424905F0D2FC5B46040018680D0037
:1009200006F082FB00900191301C06F07DFB2B004D
:10093000220005F006F80B0002000098019904F06F
:10094000F7FF05F0DDF85B460137051C18600B2F3B
:10095000CDD13349281C06F03DFB00283CD0FE21B8
:100960002B4B8905186806F0EFFA2D49061C281C48
:1009700006F0E7FA2B4906F0EAFA041C2849301C75
:1009800006F028FB00280AD0FE214846890506F01B
:10099000DBFA23498146301C06F0D3FA061C2049B5
:1009A000301C06F0D4FA1A4B211C18605B461C6000
:1009B00006F0CAFA494606F0C7FA03B0F0BCBB46D7
:1009C000B246A946A046F0BD0A2352461360023B38
:1009D0000A249846082640E70D4B1249281C1E6839
:1009E00006F0B5FA041CC9E75246253B1360009B8C
:1009F0009B7A2E2BE8D007230924984607262CE75C
:100A0000002399463FE70024B8E7C046B41200200F
:100A100098120020D0120020000020410000244045
:100A200000007042000061455D4B70B51A781207F6
:100A300000D470BD08211A785A4C8A431A705A4B58
:100A40001A782378092BF4D858499B00CB589F4635
:100A50005748FFF7A7FE574D28605748FFF7A2FEFB
:100A6000564B574A19781060532905D1802636060F
:100A7000B4462968614429605B78572B04D18023F0
:100A80001B069C46604410604E4B1A78D20767D50F
:100A900002211A780A431A7000232370C9E7242A16
:100AA000C7D100230121484A21701370474A1370AF
:100AB000444A13788B431370BBE72C2A5BD044491C
:100AC0000B780A2BB5D8581C08703949CA54B0E7BE
:100AD00000213F4B19702C2A47D0384B1A70A8E7D9
:100AE0002C2A45D03A490B780A2BA2D8581C0870FA
:100AF0003149CA549DE7314B5A700923237098E756
:100B00000021334B19702C2A38D0304B1B78022B24
:100B100000D08EE7013323708BE7412A34D0562A68
:100B200038D02C2A00D084E7264B1B78DB0700D472
:100B30007FE7042323707CE7234801784B1CDBB25A
:100B4000037024484254052B00D072E70023224949
:100B5000437109F0FFFA00289ED10223237068E751
:100B600002211A788A431A7096E70623237060E7F9
:100B7000072323705DE7052323705AE7134A137890
:100B80000133DBB21370C2E701210E4A13780B4325
:100B900013704EE701210B4A13788B4313707BE7E8
:100BA0001C0B00201113002012130020A8A300101A
:100BB00070120020680E002088120020A012002071
:100BC0006C0E0020200B00200F1300200D130020BE
:100BD0000E130020C0120020880300200121034AC8
:100BE000012013780B4313707047C0461C0B002084
:100BF00030B585B0040001F075FEFA2205006042B0
:100C000000239200C11706F07FF90B00054902008E
:100C100002910021019104492800009101F030FF68
:100C200005B030BDF0070020DD0B00100221024AA4
:100C300013780B43137070471C0B002070B506002F
:100C40000400094D1036206801F0B8FA0122002195
:100C5000206801F035FA01CC2B000122082101F0B7
:100C600071FAB442EFD170BD2D0C0010F8B5070039
:100C7000D0250400012610372D06206801F09EFAC9
:100C800000222068082101F033FA320008CC9A4093
:100C90006A626A61BC42F0D1F8BDC04610B5034833
:100CA000FFF7E4FF0248FFF7C9FF10BDA8030020CB
:100CB00098030020F0B5DE4657464E464546D02301
:100CC000E0B5564D1B0698462A685B680127D3405D
:100CD000534C3B40237043466A685B6883B0D34003
:100CE0003B4063704346AA685B682800D3403B40A2
:100CF000A3704346EA685B68D3403B40E370FFF76C
:100D0000B5FF484E3000FFF799FF434658683368F7
:100D1000D840454B38409C46187043465968736824
:100D2000D94063463940597043465A68B3680191C7
:100D3000DA4063463A409A704346F1685B68CB40BC
:100D400061463B40CB70394909688C463849884632
:100D50000968894621780F008B46794279414942DA
:100D60008A466146574639408C46411E8A46494666
:100D700057463940894661788A4600293FD1DA468C
:100D80000199002938D10190A078002831D150462E
:100D9000002A2BD1019AE17800291DD003218C462D
:100DA000002B32D1634621490B60002A1AD1300052
:100DB000FFF75CFF2800FFF741FF43461A681B4B13
:100DC000920019681B4B9B18585C03B0F0BCBB46E3
:100DD000B246A946A046F0BD002B13D00323994686
:100DE000002816D143464A461A60E0E702218946A8
:100DF000D1E702218C46CBE701218946C4E70121D6
:100E00008C46BDE70028D0D0CCE71A0003239946D2
:100E1000C8E76346054A1360E4E7C046980300202C
:100E2000580E0020A80300205C0E0020AC0D00200E
:100E3000600E0020B80300200422F0B557464E464D
:100E40004546DE46A04CE0B52378A04E9343237080
:100E50002378023A934323703070237807009A4630
:100E600020788846337831783278DB0992069C46C0
:100E7000D30F9B46337883B0DB06DB0F019301234E
:100E8000934D80072A684906934099465346C00F00
:100E9000C90F5B0700D5B4E0D0234A461B069A6110
:100EA00001236A689340002800D0B4E0D0200006F7
:100EB00083610120AB6898406346002B00D0B4E00A
:100EC000D0231B0698610120EB689840002900D0D0
:100ED000B4E0D0210906886101212B69D022994014
:100EE0005B461206002B00D0B4E0916101226B69D1
:100EF0009A40019B002B00D1B4E0D0231B065A611D
:100F000001222378134323702378DB0700D4B4E055
:100F1000D02380221B06D2025A612D20002101F02D
:100F20001BFF01222378934323702378DB0700D42F
:100F3000C3E0D02380221B06D2025A612D2000215B
:100F400001F00AFF01203F01FFB2377023782378B8
:100F50003778317832783378AE684906B040D02699
:100F60009206DB06FF09C90FD20FDB0F3606002FF2
:100F700000D0A0E0B0610120EE68B040002900D0B0
:100F800095E0D02109068861012128698140002A65
:100F900000D088E0D02212069161012269698A405E
:100FA000002B00D17BE0D0231B065A61012223785D
:100FB000134323702378DB076BD5D02380221B06D5
:100FC000D2025A612D20002101F0C6FE01222378B1
:100FD000934323702378DB0755D5D02380221B064B
:100FE000D2025A612D20002101F0B6FE40460021B8
:100FF00001F0B2FE03B0F0BCBB46B246A946A04623
:10100000F0BDD0234A461B065A6101236A6893400B
:10101000002800D14AE7D020000643610120AB68D8
:1010200098406346002B00D14AE7D0231B06586145
:101030000120EB689840002900D14AE7D021090639
:10104000486101212B69D02299405B461206002B92
:1010500000D14AE7516101226B699A40019B002B44
:1010600000D04AE7D0231B069A610122237813435C
:1010700023702378DB0700D54AE7D02380221B06A4
:10108000D2029A6149E7D02380221B06D2029A61DC
:10109000A8E7D02380221B06D2029A6192E7D023D0
:1010A0001B069A6182E7D0221206516175E7D021B2
:1010B0000906486168E770615DE7D02380221B065E
:1010C000D2029A613AE7C046280B0020240B002088
:1010D000C8030020D023F0B5C646D04E1B0635000D
:1010E00034000127984600B51C35206801F066F8E9
:1010F0003A0008CC9A40130042465362AC42F4D105
:10110000122001F05BF880234246DB0253620F207D
:1011100001F03AFE0F2001F037FE0422C04CC14D11
:101120002378934323702378023A93432370302328
:101130002B7023782378287829782A782B78490609
:10114000DB06DB0F9C46B36892069F40C00943460E
:10115000C90FD20F002800D09DE101209F61F368E4
:101160009840002900D09DE1D02109068861012125
:1011700033699940002A00D09DE1D0221206916186
:10118000012273699A406346002B00D19DE1D02370
:101190001B065A6101222378134323702378DB074F
:1011A00000D49DE1D02380221B06D2025A612D205B
:1011B000002101F0D1FD012223789343237023788D
:1011C000DB0700D4E6E1D02380221B06D2025A615D
:1011D0002D20002101F0C0FD0021934801F0BCFD4D
:1011E000042223780127934323702378023A934300
:1011F000237030232B7023782378287829782A7855
:101200002B784906DB06DB0F9C46B36892069F40AD
:10121000C009C90FD20F002800D0B7E1D0200006C6
:1012200087610120F3689840002900D0AAE1D0210D
:1012300009068861012133699940002A00D09DE1A7
:10124000D02212069161012273699A406346002BF5
:1012500000D18FE1D0231B065A610122237813436A
:1012600023702378DB0700D47EE1D02380221B0685
:10127000D2025A612D20002101F06EFD0122237857
:10128000934323702378DB0700D467E1D0238022C7
:101290001B06D2025A612D20002101F05DFD642061
:1012A000002101F059FD0422237801279343237084
:1012B0002378023A9343237030232B7023782378CA
:1012C000287829782A782B784906DB06DB0F9C469C
:1012D000B36892069F40C009C90FD20F002800D002
:1012E00038E1D020000687610120F368984000298A
:1012F00000D02BE1D0210906886101213369994092
:10130000002A00D01EE1D0221206916101227369E9
:101310009A406346002B00D110E1D0231B065A618E
:1013200001222378134323702378DB0700D4FFE0E6
:10133000D02380221B06D2025A612D20002101F009
:101340000BFD01222378934323702378DB0700D41D
:10135000E8E0D02380221B06D2025A612D20002112
:1013600001F0FAFC042223780127934323702378A9
:10137000023A9343237020232B7023782378287814
:1013800029782A782B784906DB06DB0F9C46B36860
:1013900092069F40C009C90FD20F002800D0BDE0BF
:1013A000D020000687610120F3689840002900D012
:1013B000B0E0D02109068861012133699940002AF3
:1013C00000D0A3E0D0221206916101226346716928
:1013D0008A40002B00D195E0D0231B065A610122E0
:1013E0002378134323702378DB0700D484E0D023D1
:1013F00080221B06D2025A612D20002101F0ACFC94
:1014000001222378934323702378DB0700D46DE017
:10141000D02380221B06D2025A6107E0C8030020B5
:10142000280B0020240B0020681000002D20002134
:1014300001F092FC2A212820FFF7FEFC7F232A7866
:101440002A21134040222B702B7893432B702B784A
:10145000203A93432B702B78103A934308222B7039
:101460002B78134304222B702B78134302222B700A
:101470002B7893432B702B78013A93432B70287869
:10148000C0B2FFF7D9FCCD210120C900FFF7D4FC81
:1014900080BCB846F0BD01205F61F3689840002928
:1014A00000D161E6D02109064861012133699940E4
:1014B000002A00D161E6D02212065161012273692F
:1014C0009A406346002B00D061E6D0231B069A6148
:1014D00001222378134323702378DB0700D561E6CC
:1014E000D02380221B06D2029A6160E6D02380229C
:1014F0001B06D2029A6199E7D02380221B06D202F2
:101500009A6179E7D0231B069A6168E7D022120618
:1015100051615AE7D021090648614DE7D020000605
:10152000476140E7D02380221B06D2029A6115E76B
:10153000D02380221B06D2029A61FEE6D0231B062E
:101540009A61EDE6D02212065161DFE6D02109064C
:101550004861D2E6D02000064761C5E6D02380224C
:101560001B06D2029A6196E6D02380221B06D20285
:101570009A617FE6D0231B069A616EE6D02212069E
:10158000516160E6D0210906486153E6D02000068B
:10159000476146E6D02380221B06D2029A6117E6F5
:1015A000F0B54E46DE464546574680238146E0B5B7
:1015B000B04E1943317030782A2183B0C0B2FFF7A2
:1015C0003BFC4B461B789846002B00D14BE1012594
:1015D000A94CAA4FB7E0D0235A461B069A612B00AC
:1015E0007A689340002800D0DEE0D02000068361B6
:1015F0002800BB6898406346002B00D0DEE0D02373
:101600001B0698612800FB689840002900D0DEE0A6
:10161000D021090688612900D0223B691206994031
:10162000009B002B00D0DEE091612A007B699A408C
:10163000019B002B00D0DEE0D0231B069A61012223
:101640002378134323702378DB0700D4DEE0D02314
:1016500080221B06D2025A612D20002101F07CFB62
:101660002378AB4323702378DB0700D4F5E0D02345
:1016700080221B06D2025A612D20002101F06CFB52
:1016800043461B01DBB233702378237830783178FE
:10169000327849069206D30F98463378BA68DB064B
:1016A000DB0F9A462B00C0099340C90F002800D0D9
:1016B000C9E0D020000683612800FB68984000291B
:1016C00000D0BCE0D0210906886129003B69D02206
:1016D000994043461206002B00D0AEE091612A00EB
:1016E0007B699A405346002B00D095E0D0231B061F
:1016F0009A6101222378134323702378DB0700D4F7
:1017000095E0D02380221B06D2025A612D200021B1
:1017100001F022FB2378AB4323702378DB0700D44E
:1017200095E0D02380221B06D2025A612D20002191
:1017300001F012FB01239C46E1444B461B7898467E
:10174000002B00D18FE004222378134323702378E9
:10175000023A9343237042460F239A433270237810
:1017600020789A46337831783278DB0992069C46A5
:10177000D30F009333783A68DB06DB0F01932B001D
:1017800093409B46534680074906C00FC90F5B072D
:1017900000D420E7D0235A461B065A612B007A68F2
:1017A0009340002800D120E7D020000643612800A4
:1017B000BB6898406346002B00D120E7D0231B066E
:1017C00058612800FB689840002900D120E7D0210B
:1017D000090648612900D0223B6912069940009B06
:1017E000002B00D120E751612A007B699A40019BC0
:1017F000002B00D120E7D0231B065A610122237859
:10180000134323702378DB0700D520E7D023802201
:101810001B06D2029A611FE7D0231B065A610122E0
:101820002378134323702378DB0700D569E7D0239F
:1018300080221B06D2029A6168E751614FE7D021EE
:101840000906486141E7D0200006436134E7D02310
:1018500080221B06D2029A6168E7D02380221B06F1
:10186000D2029A6108E703B0F0BCBB46B246A94673
:10187000A046F0BD240B0020280B0020C803002048
:10188000F0B54E464546DE465746E0B503788146FC
:10189000984683B0002B00D14CE10125A94CAA4FFA
:1018A000AA4EB7E0D0235A461B069A612B007268F5
:1018B0009340002800D0DEE0D0200006836128009D
:1018C000B36898406346002B00D0DEE0D0231B06AF
:1018D00098612800F3689840002900D0DEE0D0210C
:1018E000090688612900D022336912069940009BBD
:1018F000002B00D0DEE091612A0073699A40019BC1
:10190000002B00D0DEE0D0231B069A610122237851
:10191000134323702378DB0700D4DEE0D02380223A
:101920001B06D2025A612D20002101F015FA2378FE
:10193000AB4323702378DB0700D4F5E0D02380226B
:101940001B06D2025A612D20002101F005FA434600
:101950001B01DBB23B7023782378387839783A78EA
:1019600049069206D30F98463B78B268DB06DB0F38
:101970009A462B00C0099340C90F002800D0C9E047
:10198000D020000683612800F3689840002900D029
:10199000BCE0D0210906886129003369D022994032
:1019A00043461206002B00D0AEE091612A00736915
:1019B0009A405346002B00D095E0D0231B069A6135
:1019C00001222378134323702378DB0700D495E0AA
:1019D000D02380221B06D2025A612D20002101F063
:1019E000BBF92378AB4323702378DB0700D495E061
:1019F000D02380221B06D2025A612D20002101F043
:101A0000ABF901239C46E1444B461B789846002BDA
:101A100000D18FE004222378134323702378023A05
:101A20009343237042460F239A433A7023782078D9
:101A30009A463B7839783A78DB0992069C46D30F70
:101A400000933B783268DB06DB0F01932B00934059
:101A50009B46534680074906C00FC90F5B0700D459
:101A600020E7D0235A461B065A612B007268934028
:101A7000002800D120E7D020000643612800B36889
:101A800098406346002B00D120E7D0231B06586105
:101A90002800F3689840002900D120E7D0210906EA
:101AA00048612900D022336912069940009B002B1F
:101AB00000D120E751612A0073699A40019B002BF5
:101AC00000D120E7D0231B065A610122237813435B
:101AD00023702378DB0700D520E7D02380221B0664
:101AE000D2029A611FE7D0231B065A610122237894
:101AF000134323702378DB0700D569E7D0238022C6
:101B00001B06D2029A6168E751614FE7D0210906AE
:101B1000486141E7D0200006436134E7D0238022AA
:101B20001B06D2029A6168E7D02380221B06D202EC
:101B30009A6108E703B0F0BCBB46B246A946A0468E
:101B4000F0BDC046280B0020240B0020C803002055
:101B5000F8B54746CE46042280B50127994C9A4EE7
:101B600023789A4D934323702378023A934323704A
:101B7000377023782078984633783178DB093278CB
:101B80009C4633788007DB06DB0F99462B684906B5
:101B90009F4043469206C00FC90FD20F5B0700D586
:101BA000AFE0D0231B069F6101276B689F40002890
:101BB00000D0AFE0D020000687610120AB68D027BD
:101BC000984063463F06002B00D0AFE0B86101208B
:101BD000EB689840002900D0AFE0D0210906886169
:101BE00001212B699940002A00D0AFE0D0221206D3
:101BF000916101226B699A404B46002B00D1AFE006
:101C0000D0231B065A6101222378134323702378C3
:101C1000DB0700D4AFE0D02380221B06D2025A613A
:101C20002D20002101F098F801222378934323709E
:101C30002378DB0700D4BEE0D02380221B06D2022B
:101C40005A612D20002101F087F810230120337004
:101C5000237823783778317832783378AE6849063C
:101C6000B040D0269206DB06FF09C90FD20FDB0F6A
:101C70003606002F00D09CE0B0610120EE68B04035
:101C8000002900D091E0D02109068861012128694E
:101C90008140002A00D084E0D02212069161012206
:101CA00069698A40002B00D177E0D0231B065A6176
:101CB00001222378134323702378DB0767D5D023D1
:101CC00080221B06D2025A612D20002101F044F827
:101CD00001222378934323702378DB0751D5D02347
:101CE00080221B06D2025A612D20002101F034F817
:101CF000CD200021C00001F02FF8C0BCB946B0468D
:101D0000F8BDD0231B065F6101276B689F40002848
:101D100000D14FE7D020000647610120AB68D027F3
:101D2000984063463F06002B00D14FE778610120C1
:101D3000EB689840002900D14FE7D021090648619F
:101D400001212B699940002A00D14FE7D0221206C9
:101D5000516101226B699A404B46002B00D04FE73E
:101D6000D0231B069A610122237813432370237822
:101D7000DB0700D54FE7D02380221B06D2029A61F1
:101D80004EE7D02380221B06D2029A61ACE7D02313
:101D900080221B06D2029A6196E7D0231B069A6125
:101DA00086E7D0221206516179E7D0210906486101
:101DB0006CE7706161E7D02380221B06D2029A6132
:101DC0003FE7C046280B0020240B0020C80300205A
:101DD00010B504000C490D4808F0D4F80321042084
:101DE00000F056F90321052000F052F900220121EC
:101DF000042000F065F900220121052000F060F9BF
:101E0000034B1C6010BDC046A0860100C00400202A
:101E1000900C0020F0B52D4E8FB0029003913368E6
:101E20002B4C1B0A237033680D1C637005F0FCF803
:101E3000284F02000B0004A8390003F08FFA281C79
:101E400005F0F2F802000B0009A8390003F086FA49
:101E5000052104A8FFF7A4FB452109A8FFF7A0FB73
:101E600002AA13781C48A37003AB1978A1715178AA
:101E7000E1705978E1719178217199782172D27865
:101E800050216271DB7822006372002300930A33D1
:101E900008F0A2F8831C0DD0802332689B019A427F
:101EA00008D20E4A1368083313603368083333606E
:101EB0000FB0F0BD802332689B019A42F8D308210D
:101EC000074A13780B431370F2E7C046900C0020CA
:101ED000E00D0020D0A30010C0040020D80D002089
:101EE000200B0020012300B5074A83B040BA1080C0
:101EF000502100930548013308F06EF80230431E6C
:101F00009841C0B203B000BDE00D0020C004002025
:101F10000B00002100B583B002000091044850314D
:101F200008F0C2F80230431E9841C0B203B000BDB1
:101F3000C00400201021094A93691942FCD10821EC
:101F40001268074B1A70074A13780133DBB213701B
:101F5000054A13780B4313707047C0460040034096
:101F600012130020101300201C0B0020962110B526
:101F7000134C8901200000F0E1F90221002000F05B
:101F800087F80221012000F083F86022E36A142020
:101F90005A406E2313400B4A13601023E16A0B4032
:101FA00013605023A363626B183B1340064A074932
:101FB000136001F0E9FC0121142001F0C3FC10BD05
:101FC000004003402C50034034500340351F0010A4
:101FD000222300B587B02222222104930393029387
:101FE00001930093024805F0A7FA07B000BDC04670
:101FF000D4A3001010B5024805F09EFA10BDC046EB
:10200000ACA4001010B5024805F096FA10BDC04609
:1020100054A60010D0231B06F0B51E68C646731EDA
:102020009E41734230261E40164B00249C46164BA0
:1020300007270F25984600B56644E00803003A00DC
:1020400008339B009B5922409200D340290019403D
:102050001D4210D00B0093401A003C300B4B800007
:10206000C250D02342461B061B689B009B58002B86
:1020700001D02000984701341E2CDED180BCB84628
:10208000F0BDC0460041014028080020004001404A
:10209000094A830094464022634410B51C68C0007E
:1020A0006240C02414408022520113431C60034B41
:1020B0009C466044416010BD04C0014000400140A6
:1020C0000A4B80009C4604236044002901D00C2365
:1020D0000821002A00D10B00026853400C221A404C
:1020E00080235B01184302607047C04604C0014072
:1020F000D0231B061B6830B50500581E83410F48CE
:102100005C42844607203023284023408000EC08AE
:10211000814020000A4D3C3063448000A4004151BE
:102120001B19002A04D0802292011343196030BD8C
:10213000C022920113431960F9E7C04600410140F3
:102140000040014070B50600D02000060468F50884
:10215000601E8441302064420440144884460720B5
:102160003040800081402800114E3C3064448000A3
:10217000AD0081516419002A12D0802292011443CB
:102180002160D022120612680A49920053500D2095
:10219000094901F0F9FB01210D2001F0D3FB70BDCD
:1021A000C022920114432160EBE7C0460041014088
:1021B0000040014028080020152000100123D022F3
:1021C0008340120693629361094A83009446402239
:1021D00063441968C0004A40C02111408022520166
:1021E00013431960034B9C460523604443607047CA
:1021F00004C001400040014070B5EFF3108C72B68E
:102200000D4D2B68002BFCD0BFF35F8F0724CB084C
:10221000C618C05C01230C40A3401C0004400342CC
:1022200007D103433370BFF35F8F2C608CF31088AA
:1022300070BD100001F004FA2C0100D0F8B547463B
:10224000CE46884680B5EFF3108C72B6214D2C68CF
:10225000002CFCD0BFF35F8F9A422CD8D4080727FC
:10226000055D061901241740BC402C421FD00721F0
:102270000127894609E0D408055D06194C46390056
:102280001440A1400C00294211D001329342F2D2F5
:1022900001204042BFF35F8F00220E4B1A608CF387
:1022A000108800280FDBC0BCB946B046F8BD2C43EF
:1022B00010003470EEE7BFF35F8F00232B608CF3C8
:1022C0001088012040424346002BECD0089801F0D2
:1022D000B7F9C0462C0100D0024B18688007C00F28
:1022E0007047C04600C006400021044B044ABFF3BB
:1022F0005F8F02C39342FAD17047C046000100D0FD
:10230000800100D0044A1078431CDBB2172B00D99F
:10231000102313707047C046E103002000B5054B41
:1023200083B00100009318221F230348FFF786FFA4
:1023300003B000BD94A60010A80D0020F8B504005D
:1023400006200D0001F0F8FA002844D02A4B2B4952
:10235000E21853425A418023DB039C469205284BE6
:1023600062441A60274B1A6010008B689843FBD1B7
:10237000214B8021E3185A425341234A5B00490014
:102380009952062001F0D8FA2900C00003F084F821
:10239000C30921D140270121260080256162A36263
:1023A00000232C36AD0135432B60062001F0C4FA22
:1023B0003900800003F070F86023E26A53406E2217
:1023C0001A4080235B0133431A60104B23631023B0
:1023D0002B600D3BA364F8BD0D4A934203D9002343
:1023E0000C4F0D49D8E77F221040013040089F0173
:1023F00019003F180300CFE70080FCBF00C0004079
:1024000000E0004000F00040F41200200103000052
:10241000FEFF0000C0FF3F00FFFF000083680B4885
:1024200010B5844661446244090112019A18591892
:1024300054684B6801209C4201D802D00020C0B2F1
:1024400010BD12680B689A42F9D8F7E7FFFFFF0F3B
:1024500010B508000B690C009847002802D02068CE
:10246000616810BDE06000210020FAE70A4B19689E
:10247000EFF3108072B60A68002AFCD0BFF35F8FBA
:102480001B68BFF35F8F00221A6080F3108840BF83
:10249000002000217047C046D8120020F8B55746EA
:1024A0004E464546DE46E0B599460CAB1C780DAB72
:1024B0001B78060090469A460768002C11D1BC7B19
:1024C000002C42D065003B682D19033D59194B780B
:1024D000BB73002B00D1FB7300238B704B700B7010
:1024E00004E065003B682D19033D5919B2682A4B79
:1024F00094464246E3181B0163441A604A465A60F8
:102500000A9A9A600B9ADA6000238B704B700B70FA
:102510007B7B9B46002B2BD022005946B8687B68FA
:1025200098473A68002816D05B4658465B005B44E3
:102530005519033BA870D118D35C002B00D06B70E9
:102540005B460C707B73A34513D0F0BCBB46B24610
:10255000A946A046F8BD5B465B005B44033BD3182D
:102560009C705119525D002A00D05A705B460B7066
:102570007C7342464B46307D00F054FD051E06D06C
:102580005346002B03D12100306800F0A1FF0E9BC1
:10259000002BDAD01D70D8E7FFFFFF0FF0B5DE4645
:1025A0004E46574645460023E0B58DB00A936B4B27
:1025B0008200D3580B90994600239B464B460793C5
:1025C00000F0D0FC079C06000F006268EFF3108556
:1025D00072B61368002BFCD022000794BFF35F8F04
:1025E0002468637B9946002B67D092685C4B9046C9
:1025F0004B441B01984443461A685B68100019005D
:10260000801BB94100295FDD0B9800F00BFD002312
:102610000026984600279A46079C6368BFF35F8FA1
:102620005A461A6085F310885346002B08D10028BB
:10263000C6D10DB0F0BCBB46B246A946A046F0BD1F
:102640000A9B414618024B461843D047089009910F
:102650006268EFF3108572B61368002BFCD0079404
:10266000BFF35F8F0899099A002A48DB114303D012
:10267000079B1B69002B5DD1079B1B68D97B002939
:1026800007D04A00521819688C4649466244033AFA
:1026900051704A46DA734B46079A013BD168CA5CCF
:1026A0000132CA545B46079A13615368BFF35F8FC8
:1026B0005A461A6085F3108882E700230026984660
:1026C00000279A460020A7E7002901D100289BD1C6
:1026D0000021200000F07EFE43461E685F689B6874
:1026E000079A9A464346DB689846D3684B44013BB9
:1026F0001B780A931B020343136100208CE72369B4
:10270000002BB9D033003C005B1A94411A0023001F
:10271000A74219D89F421BD0594604910121039129
:102720004946029141460191514607980091FFF7B1
:10273000B5FEB7E700F016FC089A099B06000F00EB
:1027400092197B419942E5D901225242D317E3E71E
:102750009642E1D901225242D317DDE7A4120020AC
:10276000FFFFFF0FF8B557464E464546DE46E0B53B
:10277000404D81468A466A68EFF3108872B6136846
:10278000002BFCD0BFF35F8F2E68B47B002C39D0B8
:10279000670033683F19033FDB195A78B273002A88
:1027A00000D1F273A968344A8C464946A218120136
:1027B0006244116051465160304991600021D160FE
:1027C000997059701970737B9B46002B35D022008D
:1027D0001900B068736898473268002820D05B46BB
:1027E00058465B005B44D719033BB870D118D35CE3
:1027F000002B00D07B705B460C7073735C451DD062
:10280000002626E06B68BFF35F8F1C6088F310889A
:1028100001204042F0BCBB46B246A946A046F8BDE6
:102820005B465B005B44033BD3189C70D119D25DBF
:10283000002A00D05A705B460B7074734A465346A8
:10284000287D00F0EFFB061EDAD02100286800F09A
:102850003FFEEB681B19013B19786B68BFF35F8F74
:1028600000221A6088F310880020002ED2D10802BE
:102870002043CFE7E4030020FFFFFF0F6D2400108B
:1028800010B5124C6368002B04D00A21104800F0E8
:1028900057FC10BD23000F4A1021206800F0B8FC3F
:1028A000032000F053FB032000F02CFC03200A4916
:1028B00000F072FBFFF726FD084B9C4603236044A3
:1028C0002375074B80006060DC60DEE7E4030020D6
:1028D000D81200201D2400109D2500104000003457
:1028E000A412002000487047E4030020F0B55746CA
:1028F0004E464546DE46E0B585B0019310AB1B78E9
:102900000600039300239A46984600927268EFF3FC
:10291000108972B61368002BFCD0BFF35F8F356847
:10292000AC7B002C49D067002B683F19033FDB19B3
:102930005A78AA73002A00D1EA73B1684F4A8C46CC
:1029400000980199A21812016244106051600E991A
:1029500091600F99D16042469A705A701A706B7BE1
:102960009B46002B45D022001900A8686B68984749
:102970002A68002830D05B4658465B005B44D71974
:10298000033BB870D118D35C002B00D07B705B4642
:102990000C706B735C452DD0F3681B19013B1878E4
:1029A0007368BFF35F8F42461A6089F310885346FD
:1029B000002B2CD10002204307E07368BFF35F8F28
:1029C0001C6089F310880120404205B0F0BCBB4672
:1029D000B246A946A046F0BD5B465B005B44033BA4
:1029E000D3189C70D119D25D002A00D05A705B4672
:1029F0000B706C73307D009A019B00F013FB8246D4
:102A00000028C9D02100306800F062FDC4E7039BB4
:102A1000002B30D00E9B00200F9998470300040034
:102A20000D000B4327D000290DDA00980199020010
:102A30000B00121BAB41994213D818D0009201939E
:102A4000039B9A4662E700F08DFA02000B00A4187F
:102A50005D4100940195A94203D8F1D100998A42C1
:102A6000EED901235B42DC1700930194E8E700995B
:102A70009142E3D9F5E70020A7E7C046FFFFFF0F2B
:102A8000F0B54E464546DE465746E0B585B010994E
:102A9000050089461100194300D1ECE0D817040065
:102AA0005440260004005C4001002700361A8F4184
:102AB00049460E980A600F9A4B604A618D60086122
:102AC00000F050FA02000B00B6185F410096019723
:102AD000B94200D9DDE000D1D7E00023A8469B46EB
:102AE0001F0043465A68EFF3108A72B61368002B32
:102AF000FCD0BFF35F8F43461E68B47B002C00D12F
:102B00008BE063001B19033B1A0094460393336860
:102B100063445A78B273002A00D1F273414689683F
:102B2000604A8C4600980199A21812016244106014
:102B300051605D4991604946D1605A469A705A7019
:102B40001A70757B002D00D185E022002900B06845
:102B5000736898473268002800D171E003996B00D0
:102B60005B195118033B8D70D018D35C002B00D03B
:102B700089E0047075733E00AC4200D16CE04346BE
:102B80004246DB6852681B19013B1B78BFF35F8F1D
:102B9000594611608AF31088002E0CD101261B02C1
:102BA0001C434B463000DC6005B0F0BCBB46B2466F
:102BB000A946A046F0BD4846036998470700031E92
:102BC00001D10024EDE74A461468556822002A43E3
:102BD00065D0002D0BDA0098019902000B00121B42
:102BE000AB41994213D822D00092019379E700F0CB
:102BF000B9F902000B00A4185D4100940195A942A7
:102C000005D800D06DE700998A4200D869E7012312
:102C10005B42DC170093019463E75B68BFF35F8F4F
:102C20001C608AF31088012400266442B9E70099E9
:102C30009142D9D901235B42DC170093019450E7FC
:102C40006B005B19033B0398D3189C701118125C3E
:102C5000002A15D10D7074734346187D009A019BAC
:102C600000F0E0F9061E00D189E74346210018680C
:102C700000F02EFC83E7012600270122002317E73E
:102C80005A700D70E7E74B7073E700998A4200D8DD
:102C900023E701235B42DC17009301941DE71E002C
:102CA00000247EE7FFFFFF0F51240010F0B5040061
:102CB0000D0006267642F717C64636196F4100B555
:102CC0008F4213D810D000F04DF932003B00121A99
:102CD0008B41002B14DC002B37D02900200000F0A2
:102CE0004BF980BCB846F0BD8642ECD900260027DF
:102CF00000F038F932003B00121A8B41002BEADD5C
:102D000030003900FFF72EFD0028E6DB002398464F
:102D1000BC460F4A0F4F7B6A9C4504D8B96A8E4265
:102D2000DBD99C45D9D11168EFF3108072B60B68DE
:102D3000002BFCD0BFF35F8F1368BFF35F8F41465A
:102D4000196080F3108820BFE5E7002AC5D0D7E7D7
:102D5000D81200200040054070B504000D0000F0BE
:102D600001F902000B0020002900801859418B4214
:102D700005D802D0FFF79AFF70BD8242FAD9012030
:102D80004042C117F6E7C04670B5060000F0EAF809
:102D9000FA2204000D00002330000021920004F00C
:102DA000B3F8001969418D4205D802D0FFF77EFFC4
:102DB00070BD8442FAD901204042C117F6E7C046EF
:102DC000F8B5CE46474680B506000C00FFF7CAFCB2
:102DD00000280CDC2D4B0020596A8C4203D89B6ADA
:102DE0000130B34245D3C0BCB946B046F8BD20BFA0
:102DF000274D6A68EFF3108772B61368002BFCD07A
:102E0000BFF35F8F2B68C1B29C465B7B8B4235D092
:102E1000FF2303405A009146624612689944904647
:102E20004A464244033A9278002A1DD0EA68000AD2
:102E300090464344013B1B78C0B2834221D06B686B
:102E4000BFF35F8F00221A6087F310880F4A0020BB
:102E5000536A9C42C7D8926A0130B242C3D2E01A88
:102E6000421E9041C0B2BEE72B699842E7D12A6169
:102E7000E5E7601A431E9841C0B2B4E7FF23034060
:102E8000D4E7604600F024FBD9E7C0460040054087
:102E9000E4030020F0B5D6464F464646C0B5EFF3F2
:102EA00005833F22134018001038EFF3108C72B6E0
:102EB000204D2A68002AFCD0BFF35F8F0122110049
:102EC00081401D4C884661631C4917000E788A4674
:102ED0003100C1400F400A4209D1BFF35F8F2F601C
:102EE0008CF31088E0BCBA46B146A846F0BD144940
:102EF0008200646A51588C420FD3124BD258434619
:102F00009E4353461E70BFF35F8F00232B608CF3EC
:102F10001088002AE6D09047E4E70B4A9B009046D1
:102F200043441A681A60BFF35F8F00232B608CF351
:102F30001088D7E7280100D0004005401C1300206E
:102F4000E4120020980C0020D03F054010B501008D
:102F5000024A0348FFF750F910BDC046B0A6001062
:102F60000C130020034B596A0A00986A596A8A4276
:102F7000FAD1704700400540064A536A9942FCD88E
:102F800007D1044B02E05A6A914202D19A6A824206
:102F9000F9D370470040054070B504000D00EFF311
:102FA000108672B61A4A1368002BFCD0BFF35F8FED
:102FB000002D1BD0200000F0DFFC164981420AD012
:102FC000200000F0E1FC0121200000F0BBFC012307
:102FD000A340114A1360114BA400E550BFF35F8F6B
:102FE00000220B4B1A6086F3108870BD0B4BA200B9
:102FF000D5500122A2400A4920000B7893430B7060
:10300000044900F0EBFC0021200000F09BFCE5E708
:10301000280100D0952E001038600540980C002043
:103020001C130020F0B54F46D6464646C0B50700F3
:103030002F4C616A0D00A66A616AA942FAD18B42DF
:1030400008D805D00120E0BCBA46B146A846F0BD7C
:10305000B242F7D9EFF3108A72B626480168002908
:10306000FCD0BFF35F8F0125BD402349204C88462B
:10307000097889462943C9B28C46414660460870A2
:10308000391D1E48890065630A51B9000B50216A39
:103090000020294219D0616A0800A66A616A81424B
:1030A000FAD18B4219D801D1B24216D8CC451DD0E5
:1030B0000F4B1F201D625D6301230740BB40104A78
:1030C0001E38136043464A461A70BFF35F8F0022D2
:1030D000084B1A608AF31088B5E70020BFF35F8FB2
:1030E0000022044B1A608AF31088ACE70120ECE759
:1030F00000400540280100D01C130020E4120020ED
:1031000080E200E0EFF3108C72B60A490B68002BE6
:10311000FCD0BFF35F8F01238340074A0748136247
:1031200002789A430270BFF35F8F00230B608CF329
:1031300010887047280100D0004005401C13002073
:10314000024B9C4661448900016070474000003496
:1031500010B50400FFF7D6F801002000FFF7F0FFDC
:10316000FF232371BFF35F8F10BDC04610B504006D
:10317000FFF7C8F801002000FFF7E2FFFF23A3805C
:10318000BFF35F8F10BDC04610B504000120FFF7EC
:10319000C5F8044B9C46604480002060BFF35F8FFD
:1031A00010BDC0464000003470B505001400160084
:1031B000002915D00C00002A12D080686B6898474F
:1031C000296800280ED073009B196200033B121976
:1031D000CB18033A9C7088188A5C002A15D10670B7
:1031E000200070BD63001B197200033B9219CB18BD
:1031F000033A9E7088188A5C002A02D10470340059
:10320000EEE75A7004703400EAE75A700670E7E798
:1032100030B583600023CCB2437301330473426042
:103220008373C4730D000068012C06D9421C01335E
:10323000DBB2137003329C42F9D1FF2129404B00CD
:103240005918002340180338437030BDF8B5CE46F6
:10325000474606000C0080B5002907D04D000368E2
:103260006D18033D5A195778002F04D12000C0BCB7
:10327000B946B046F8BD7900C919033988464344B8
:103280005978894600215970517073683A002100BD
:10329000806898473368002814D042469A18947082
:1032A00059195B5D002B00D053700F702700494601
:1032B0003000FFF7CBFF390002003000FFF774FF4A
:1032C0000400D3E7424641465D19AF709A185B5C33
:1032D000002B00D06B701470E9E7C046F0B557467C
:1032E0004546DE464E46E0B50D006B0001685B19B1
:1032F000DF1E0400C85D83B00192CA1900284CD0BB
:1033000043001B18033BCB185E78B446002E16D141
:10331000019E002E3ED0E67B002E04D073009B1948
:10332000CB18033B5D70E57300282FD10023537049
:1033300003B0F0BCBB46B246A946A046F0BD720041
:103340006244033A89184A78904600224A709146AE
:103350005A70010032002000FFF726FF43468246E4
:10336000002B07D05B0021684344033BCB185A78FD
:10337000002A16D1424651462000FFF715FF21686A
:10338000019BCA19002BC6D10028CFD043001B18BF
:10339000033BCB1800219970C8E7019B002BBAD1E1
:1033A000C4E7500080180338091848788346484617
:1033B0004870587041462000FFF7F6FE5946804697
:1033C0002000FFF743FF414602002000FFF7ECFE1C
:1033D0008046CFE7F0B557464546DE464E46E0B557
:1033E00083B00191457B04006B0000685B19DF1E10
:1033F000C15DC21900294ED04B005B18033BC318B6
:103400005E78B446002E18D1019E002E40D0E67B97
:10341000002E04D073009B19C318033B5D70E57345
:10342000002931D1002328005370617303B0F0BC30
:10343000BB46B246A946A046F0BD72006244033ABC
:103440008018427890460022427091465A702000BF
:103450003200FFF7A9FE43468246002B07D05B00EF
:1034600021684344033BCB185A78002A17D14246BF
:1034700051462000FFF798FE019B01002068C21909
:10348000002BC4D10029CDD04B005B18033BC318DF
:1034900000209870C6E7019B002BB8D1C2E750000E
:1034A0008018033809184878834648464870587091
:1034B00041462000FFF778FE594680462000FFF77E
:1034C000C5FE414602002000FFF76EFE8046CEE7B3
:1034D00070B5040000292CD0437B8B422ED00568A8
:1034E00048004018033828188278002A21D0530059
:1034F0009B18033BEA5CEE188A4202D11BE0002ACB
:1035000008D053009B18033BEB185A788A42F6D137
:1035100042785A7000230122837043702000FFF725
:10352000DDFE617B02002000FFF73EFE607301209C
:1035300000E0002070BD43783370EBE701221900F2
:10354000FFF7CCFE60730120F4E7C0462C4B2D4AF8
:1035500070B51A602C4A2D4B2D491A6014008B68E7
:103560009C43FBD12B4D2C4EB54208D2013E761B1D
:10357000B60808CD984723000134B342F9D100F0D2
:103580007DF8264A214B1A60214A9368DB43DB0110
:10359000DD09002BF9D14022214B224C224E9A67A3
:1035A0005A671A67DA66B44208D223682000002BF3
:1035B00020D00834FFF7DAFDB442F6D31B4E1C4C82
:1035C000C022A168300003F0A7FDA660FEF78CFEC4
:1035D00000F038FBFFF754F9164C174EB44208D2EE
:1035E000013E361BB60808CC98472B0001359E4299
:1035F000F9D170BD0834FFF7ABFDB442D5D3DDE798
:1036000000E00040BFCDFBFEFE7F3C0000F000402C
:1036100000C00040D0040020E0040020FFFFFF01B4
:1036200000F00140C8040020D00400200000002069
:1036300000ED00E0E0040020E804002000BEFDE70B
:103640000FB400B5084883B003F0CEFE049B002BF6
:1036500007D005A91800019101F0A4FE034803F06A
:10366000C3FE00BEFDE7C046D4A60010E4A60010CD
:1036700010B50148FFF7E4FFE8A6001030B50C20B4
:1036800083B000F045FBFEF727FE00280ED0944BD8
:10369000944A1A605A609A60DA601A615A619A61B3
:1036A000DA611A62904A5A6203B030BD8F4CA0674B
:1036B00000F082FB01228E4B1A60636C012BFCD15F
:1036C00003228C4B1A60894A936B012BFCD1022494
:1036D0000121894A89480533009400F0C5FA052381
:1036E000874A01218748009400F0BEFA864B5A6849
:1036F000FF2A02D8802252005A608022784C7D4BEB
:1037000021691201804D1A60002905D0606901F01D
:10371000C3FE01300138FDD1E0217B4B02201A6845
:103720001140802252012A43116019684840032148
:103730000140116004219A681142FCD0802280214E
:1037400092012A4309011160802252005A606F4B96
:1037500023616F4B5968FF2900D85A600321644ADE
:103760006B4B116002399A681142FCD0E0201A6854
:103770001040802252011A4310601868484003210B
:1037800001400220116062498A681042FCD0802208
:1037900092011343802212011A6080225D4B520075
:1037A0004A6063615C4B5968FF2900D85A608022E7
:1037B0005A4BE1691201584D1A60002905D0606921
:1037C00001F06AFE01300138FDD1E02252490B6858
:1037D0001A4080235B012B431A60802380229B01C7
:1037E0002B4312011A6080223E4B52004A60E36173
:1037F0004B4B5968FF2900D85A608022494B216AF7
:103800001201474D1A60002905D0606901F044FE9D
:1038100001300138FDD1E02241490B681A40802374
:103820005B012B431A60802380229B012B431201F2
:103830001A60802380225B004B602A4BD2022362F5
:10384000394B5968914200D25A608022374B616AE5
:103850001201354D1A60002905D0606901F01CFE87
:1038600001300138FDD1E0222F490B681A40802336
:103870005B012B431A60802380229B012B431201A2
:103880001A608023DB024B60174B6362284B5A6837
:10389000FF2A02D8802252005A608022254BA1695B
:1038A0001201234D1A60002905D0606901F0F4FD72
:1038B00001300138FDD1E0221D490B681A408023F8
:1038C0005B012B431A60802380229B012B43120152
:1038D0001A6080235B004B600E4BA361E4E6C04698
:1038E000B00D0020006CDC021BB70000008000401F
:1038F0003CB0004030B00040002F685900800240CA
:1039000000389C1C00C0024030800040001BB70003
:103910003C800040405973075480004054B0004040
:103920006080004060B000406C8000406CB000409F
:103930004880004048B00040014B8000C0587047AC
:10394000B00D002001238340002904D0034A1360F6
:10395000034A13607047034A1360FBE780E200E00C
:1039600000E100E080E100E001238340014A1360B0
:103970007047C04600E200E0024B10309B688000B8
:10398000C058704700ED00E070B50D00EFF31086F1
:1039900072B60F4A1368002BFCD0BFF35F8F0D4B3C
:1039A00010309B6884001B590B4A934203D09D4200
:1039B00001D0FFF75DFE074B9B681D51BFF35F8F82
:1039C000BFF35F8F0022024B1A6086F3108870BD30
:1039D000240100D000ED00E0CD010010F0B5DE467E
:1039E00057464E464546E0B50C0083B0EFF3108ACB
:1039F00072B65A4A1368002BFCD0BFF35F8F1022B7
:103A0000914681444A46564B96009B689D59554BBA
:103A100098469D4205D0A54216D0534FEB1B2F2B45
:103A200014D94F4B9B689D51BFF35F8FBFF35F8FDE
:103A300000224A4B1A608AF3108803B0F0BCBB46E0
:103A4000B246A946A046F0BD1D00EAE70123834027
:103A50009B465A46454B1B681A4000925A46444BB7
:103A60001A60BFF35F8FFCF7FEFB0190002803D0C4
:103A7000814501D0FFF7FCFD01232A009A43130082
:103A80003C49DB1B5B415943090D93689C4208D1BB
:103A90005AE043001B189B00FB189868A04211D005
:103AA0001A00062010560028F3DA009B002B05D0E0
:103AB0005A46314B1A602D4B1A60B2E75A462C4BCE
:103AC0001A60AEE706201856002821DB42001118C4
:103AD00089007C188846A1689960E179D97106212E
:103AE0006156997100291FDBA488F91A6405241511
:103AF00044440919E0240905490D24022143998011
:103B000012181E4B9200BF181A781870BA71CCE7C1
:103B1000019800280BD1FF30907119489080174A06
:103B2000107811709871C0E7BD210902E7E7154AC6
:103B30001549D21A083A5002400D014399801349A1
:103B400052080A43DA80B0E7062010561300002816
:103B5000BCDA019A002AEAD14546E0E7240100D008
:103B600000ED00E0CD0100100C04002000E100E0B9
:103B700080E100E0AAAA000080E200E01513002026
:103B800000BDFFFF4604002000F0FFFF00F8FFFF2C
:103B9000F8B5012504000543FCF765FBEFF3108C35
:103BA00072B6214A1368002BFCD0BFF35F8F1F4E03
:103BB0002100B7681E4A1F4B891A49414B431B0D10
:103BC00059B28300F858A8421CD00623D3568B4222
:103BD0001CD01223D3568B4222D01E23D3568B42A5
:103BE00020D02A23D35603208B4210D0124B1A78B0
:103BF0001970A271BFF35F8F00220B4B1A608CF318
:103C00001088F8BDB2680D48D050EFE7002043009F
:103C10001B189B00D218FF239371094B9380E5E793
:103C20000120F4E70220F2E7240100D000ED00E0DB
:103C30000C040020AAAA000015130020CD010010DA
:103C400000BDFFFF054B064A1360064A1360536030
:103C50009360D3601361536193617047808080806B
:103C600000E400E004E400E0F0B5C646040000B55E
:103C70000C2090461F000E0001F00EFC4101091AB5
:103C80008D01691AC90009188901404601F004FC38
:103C9000069B3F041A0323681743002B22DB184BB3
:103CA000184DE21853425A4180235B019C4612038F
:103CB000154B62441A60154B1A601100AB689943AA
:103CC000FBD1C022231D92011A4321232660A0604C
:103CD00013602368002BFCDA0823E760136080BCC4
:103CE000B846F0BD3F2322681340B342D7D1A36842
:103CF0001B051B0D8342D2D1E368002FCFD1EEE725
:103D00000040FDBF00C0004000E0004000F0004067
:103D10008023024A9B000343D36270470080054022
:103D200010B5140080221B4BD2051A6000281AD04F
:103D30000123194A1843194BDA61194A42401A62A1
:103D4000596298628022134BD2051A601549164AAF
:103D50001160E022D2041A60002C07D18022134B9C
:103D600012061A6010BD0D4BD861EBE763011B1BF7
:103D70009A008023121912015B049A4200D30C4A64
:103D80000C4B1A60054B5A608022084BD2051A6012
:103D9000E8E7C04600B00540D3C007B0008005404A
:103DA0002D3FF84FFCFF01000820014000A0054016
:103DB000FFFFFF0084120020AA23064A1B011360A4
:103DC0002F230549D360054B19605368002BFCDA9B
:103DD0007047C0460040024000B0FA000060024058
:103DE0009A4200D2885470477047C046F8B557468B
:103DF0004E464546DE46E0B599460A9B07009A4680
:103E00000D9B8846934615000B9E9B0710D10C9B7B
:103E10009E420DD29D1B14000E005D4422004B46B5
:103E2000013431002020B847A542F7D1B0460B9E9F
:103E3000002E27D0444675195346AA1B013E985DB3
:103E400021004B46B847002EF6D123002C0098469F
:103E50000D9B9B070FD55B46E51A0C9BAB420AD91D
:103E60004646984622004B46310020200135B8478F
:103E70000134A845F6D82000F0BCBB46B246A9469E
:103E8000A046F8BD2C00E3E7F0B54F464646D646BF
:103E9000C0B584B098460EAB1B78129F99469446E5
:103EA0000D9C109B119EBA0725D4002E4BD19C422D
:103EB00000D3BFE001223A4092461F2C00D9B8E05F
:103EC0000C9A551E302201E0202C03D001342A55D3
:103ED000A342F9D85246002A0DD0A6420BD9202C75
:103EE00044D00C9A551E302201E0202C3ED00134E3
:103EF0002A55B442F9D1FA064DD57A053FD4002CA3
:103F000039D10F9B102B00D179E00F9B022B00D1F0
:103F10008AE030230C9A012413704B46002B3FD0CB
:103F20002D230C9A135501340C9B62460093039782
:103F3000434602960194FFF759FF04B0E0BCBA462D
:103F4000B146A846F0BD012215003D40AA463A42BE
:103F50002FD04A46002A02D10C323A4200D0013E0C
:103F60009C42BAD21F2CABD9202E27D92024FA0686
:103F7000DAD57A0503D4A3422DD0A6422BD00F9BCD
:103F8000102B32D0022B20D0202CCDD030220C9BF5
:103F90001B191A700134202CC6D04B46002BBFD100
:103FA0007B070DD43B07BFD520230C9A1355013452
:103FB000BAE79C429FD21F2C00D881E720249AE7C1
:103FC0002B230C9A13550134AEE7202CACD00C9B5C
:103FD0001B1901343AE0631E012C92D00F9A102A6B
:103FE0002AD0022A2FD01C00D0E7BB060ED4202CEA
:103FF0009AD00C9B1A19013478231370C4E7BB06BE
:104000000DD478230C9A01241370BFE7202C00D123
:104010008AE758220C9B1B191A700134B4E7582305
:104020000C9A01241370B1E70C9A603301241370C9
:10403000ACE7202400265EE7023CBA06E9D40C9ADD
:1040400012191C00D8E70C9A9246534462221A7047
:104050009AE7C04610B5002800D110BD03F074F9EE
:10406000FBE7C0460B0010B5002802D049681B686A
:10407000984710BDF0B5DE4657464E464546E0B57A
:104080009BB09B46249B89469846259B0B900C929F
:104090004046424619009A4601F0D7FC002800D05D
:1040A000D8E0012240465146774B524201F0C8FC0D
:1040B000002800D0CEE0012240465146734B5242C8
:1040C00001F0A8FC002800D0C4E0002200234046F4
:1040D000514601F09FFC002800D0B9E1424653460A
:1040E0000A9209938023289ADB001A400E92289A9C
:1040F0001A4201D1062326930A9A099B16001343FC
:1041000000D0C7E0289B002500261B0500D49BE1BA
:1041100000230D93269A0D9B9A4200DC9FE1D01A52
:10412000431E26938023289ADB001A43002300278E
:1041300028920D93279B0024BB4200D9DC1B02234D
:10414000289A1A400E92289A134203D07B427B4150
:104150005B421C400D9B002B07D00A9809992A004E
:10416000330001F0EEFB0A90099100220023404643
:10417000514601F04FFC002805D0802000068446FF
:10418000099961440991289A414B0B9D134004936E
:10419000269B0A9A0293099B039400920193494635
:1041A0005B4628000C9A00F08BF90400002F62D0C7
:1041B000289B220098061F23C0179843631C98462B
:1041C00049465B466530A8470D9B0025DA179C18C9
:1041D000DB0F9A465440013F01E0202D13D00AAA7C
:1041E00094461F23200063440A2101355E1901F023
:1041F00053F93031317020000A2101F04DF92600C9
:104200000400092EE9D805230693002304930A33FA
:104210000393534605970B9F029312AB00934246BC
:104220005B46494638000195FFF72EFE0E9B0400C1
:10423000002B20D00C9BC51A279BAB421BD91E001C
:1042400022005B46494620200135B8470134AE4282
:10425000F6D810E0289B42460493279B49460393D7
:10426000269B0B9802935346009201935B460C9A4F
:1042700000F026F9040020001BB0F0BCBB46B2469B
:10428000A946A046F0BDC046FFFFEF7FFFFFEFFF4E
:10429000FFF7FFFF734B099F9C467800400D604479
:1042A00001F0E6FB704A714B01F069FB704A714BFB
:1042B00001F03EFB3B03704A1B0B1A4304000D0048
:1042C000300011006D4B002201F029FB6C4A6D4B50
:1042D00001F055FB02000B002000290001F028FB33
:1042E00001F0DEFB0D9001F0C3FB674A674B040051
:1042F0000D0001F044FB0022654B01F019FB01F0B9
:10430000CFFB644A0600644B2000290001F037FB14
:10431000040030000D000F9601F0AAFB5F4A604BCD
:1043200001F02DFB02000B002000290001F0F7FA3C
:1043300002000B0006000F0001F021FB3200040018
:104340000D003B003000390001F0F2FA002210901D
:104350001191544B2000290001F0F3FA0022524B36
:1043600001F0E6FA02000B002000290001F0E9FA52
:1043700000224E4B01F0DCFA02000B002000290065
:1043800001F0DFFA0D008021040032003B00002024
:10439000C90501F0C4FA02000B002000290001F059
:1043A000C7FA02000B001098119901F0CAFA002216
:1043B000314B01F0BDFA3E4B0F9C9C4664440022F9
:1043C000230501F0DCFA05000E0002000B000A983C
:1043D000099901F01FFB00280AD00D9B2800013B22
:1043E00031000D930022304B01F0ABFA05000E00B6
:1043F000C6270D992B0063318F42BF4128997F4218
:104400000437090500D495E6334300D182E6099CC0
:10441000284A2100284B0A9801F00AFB002808D0FE
:1044200000222100254B0A9801F0F4FA002800D060
:1044300070E6269B002B00D17CE60E9B5A1E934112
:10444000269AD31A269375E6002304270D9371E666
:1044500043460A9380231B065344099342E60023F4
:1044600026935FE601FCFFFFFB799F501344D33F87
:10447000B3C8608B288AC63F0000F03F0000F83FB9
:1044800061436F63A787D23F71A379094F930A40B5
:104490000000E03F1655B5BBB16B0240EF39FAFEA4
:1044A000422EE63F00002C4000002440000018404F
:1044B000FF0300002D431CEBE2361A3F80842E419F
:1044C000F0B54E46DE4657464546E0B597B09946AC
:1044D000209E219F229B8346984607910C923B0089
:1044E00032003000390001F0B0FA002800D0A9E114
:1044F000012230003900CA4B524201F08BFA0028E9
:1045000000D0E1E0012230003900C64B524201F0F8
:1045100097FA002800D0B7E0002230003900C24BE3
:1045200001F08EFA002800D099E000223000390016
:10453000BE4B01F06FFA002800D090E0002200236B
:104540003000390001F066FA002800D0B1E0002305
:104550000D93249B5B0501D40623984608AB9C462B
:104560001722002430234146624404E001341355ED
:104570000139202C01D00929F8D8884630003900AB
:1045800001F08EFA4346DA00A94B05009B181A6821
:104590005B680892099301F06BFA02000B0030008F
:1045A000390001F0BCF9089A099B01F0E8F90A907A
:1045B0000B9101F099FA824601F056FA02000B00C5
:1045C0000A980B9901F0ABF900229A4B0A900B91D3
:1045D00001F036FA002800D1C0E001239C46E244F5
:1045E000504601F041FA02000B000898099901F0C9
:1045F00017FA002802D000239A4601354346002BC3
:104600006AD008AB17269C4608956644554614E0C8
:1046100001235B4243440A2128009A4600F03CFFF4
:10462000013430313719397028000A2100F034FF85
:10463000092D00D8D0E0D0460500202CE8D10EABE3
:1046400098460323249A1340012B00D196E020239F
:10465000249A01930392239A434602921EE0249BDC
:1046600058460493239B00960197039343460C9A64
:10467000029307994B46FFF7FDFC17B0F0BCBB4611
:10468000B246A946A046F0BD249B5B070ED4032288
:10469000694B249901920391239902910093584602
:1046A0004B460C9A0799FFF7A1FBE6E70422634B00
:1046B000EFE73B0032000020002101F030F9012338
:1046C00006000F000D9344E7249B0393239B029362
:1046D000042301935A4BE1E7280001F0C9F90200D5
:1046E0000B003000390001F01AF9524B002206008D
:1046F0000F0001F08FF90EAB984600280AD1002276
:10470000300039004B4B01F09BF9002802D1EB0738
:1047100000D50135202C94D008AA944617232800F0
:1047200063440A2101341E1900F08EFE3031280046
:1047300031700A2100F088FE051EEBD10323249A74
:104740001340012B1BD0202C00D180E70D9B002BA8
:1047500035D02D224146631C0A5579E700220A987C
:104760000B99344B01F056F9002800D046E7534628
:10477000002B51D101239C46E2443FE72024239B98
:10478000002BE0D00D9B002B03D1249A0C33134255
:1047900002D0239B013B2393239BA342D3D908AB95
:1047A0009C46172230236244202C00D14FE72399E6
:1047B000013413558C42C6D0202CF8D147E7249BF6
:1047C0005B0724D4249A2300120700D440E7202258
:1047D000414601330A553BE75746089D202C00D13E
:1047E0002DE7220030214046002F09D00132B1547C
:1047F000202A00D123E7D3431B191B18002BF5D126
:104800000EAB98462E234146541C8B5482E72B2234
:104810004146631C0A551BE7DB0700D4EEE6A9E717
:10482000FFFFEFFFFFFFEF7F65CDCD4165CDCDC130
:10483000F0A800100000E03FF4A60010F8A6001059
:1048400004A70010249B0393239B0293032301934B
:10485000004B23E700A70010F0B5DE464E46574652
:104860004546E0B59FB01C00289B91460993C94A74
:10487000C94B8B4608901A60002900D118E200232A
:1048800020789A46002800D11AE226001D005C46D6
:104890000AE02A006F1C4B46089D2100A8473D00F6
:1048A00001363078002870D02528F2D110239B469D
:1048B000083B9A46043B9846023B00219C46721CEA
:1048C000107816000300203BDBB2102B03D8B34F47
:1048D0009B00FB589F460300303B092B32D9002335
:1048E0000A932A2868D0002398462E283ED0030039
:1048F000683BDBB2122B1CD8A94A9B00D3589F46B9
:10490000012301321943DBE7634601321943D7E73C
:10491000434601321943D3E75B4601321943CFE7DF
:10492000534601321943CBE780235B00707819436B
:1049300001360300253BDBB2532BAAD8994A9B00D2
:10494000D3589F4600270300B800C0190136400025
:10495000C018337830381A00303A0700092AF3D9E2
:104960000A901800002398462E28C0D18023707822
:10497000DB0019430300303B721C092B00D8A1E176
:104980002A2800D1B2E11600B1E7A346AA462C00BE
:10499000D14503D801235B424B449A464B465246CD
:1049A00059460020089DA84720001FB0F0BCBB4618
:1049B000B246A946A046F0BD099B40CB0A96002E00
:1049C00003DB50780993561C8DE728380143704269
:1049D0000A9009935078561C85E7782800D1DFE1CA
:1049E000582800D14CE26F2800D14FE3622801D152
:1049F00000F030FC10230A009A430B92692801D082
:104A000000F0A9FC0A230C934B0500D5D0E10B9ACA
:104A1000802311009B0019408B461A4200D0A1E26E
:104A2000802311005B0019408A461A4200D0B6E389
:104A300013005B0600D5EDE2130009991B0601D4B3
:104A400000F076FC08C91BB2D8171A18424092B27F
:104A500009919346DA0F1292002B09D1802310227C
:104A60000B99DB000B4091430B91002B00D0E4E24B
:104A70000B9A6123920600D541230EA91F228C4672
:104A8000DBB262440A3B5F461395A34655460C9C35
:104A9000B2460D9316000AE03033DBB20135735590
:104AA000A74200D2EDE2202D00D1EAE2070021006A
:104AB000380000F0F1FCCBB20929EDD90D9A9446EB
:104AC0006344DBB2EAE780239B0070781943013628
:104AD0002FE77078682800D1CDE180230136194393
:104AE00027E770786C2800D1BFE180235B00194371
:104AF00001361EE7462800D19BE10722099B04915D
:104B0000073393430A9A19000392424602920CC952
:104B100008980092019309912A004B462100FFF763
:104B2000CFFC01360500BCE62A006F1C4B46089DF1
:104B300021002520A84701363D00B2E68B0700D4AE
:104B4000ADE1099B2A009A466B1C9846534601CB5F
:104B500021009A46089F4B46C0B2B8470A9B9C4624
:104B60006544012B00D886E2089B4746B0462600E4
:104B70004C4699463A002300013731002020C847AF
:104B8000AF42F7D1A1465346340046460993013659
:104B900087E6C04659480010801200200CA700107C
:104BA00050A700109CA70010099B04CB9B464346CE
:104BB0000992002B00D1C6E013789C46002B00D14F
:104BC000BDE34346013B099A0133D0180A9F130005
:104BD00001E0834203D05A780133002AF9D1099ABF
:104BE0000A979B1A0B9380230A00DB001A400C9251
:104BF000194204D00B9B434501D943460B93022332
:104C00001A000A400D920B4200D187E1604600284D
:104C100000D168E10C9B002B00D10DE1A844C246F5
:104C2000099B57465B1B9846089BB2462A00260004
:104C30004C46994609E023003100551CC8474346BD
:104C4000585D002800D126E12A009742F3D1A14601
:104C50003D00340056460D9B002B00D043E15B46DF
:104C6000013609931DE6099B1A0008CA9246002BDB
:104C700048D0212211438B460EA884461F2161444F
:104C8000099500220F27A4460D0002E0202A0CD02F
:104C90000B003C001C4020003730092C00D807389E
:104CA0000132A85419090F2BF0D86446099D32E04F
:104CB000DC4B2078089300239A46002800D0E4E5D6
:104CC000002465E6434606000A9F9800C01801329A
:104CD000400080191678030030003038303B092836
:104CE000F3D93000984616000A9700E6099B023671
:104CF00004CB9046D2434046D217104080460993D9
:104D00003078F4E5102208009043113210438346B6
:104D100000224905B0D55B46069308230593434618
:104D20000493102303930023029316AB0192009384
:104D30002A004B4621000898FFF7A6F853460500C5
:104D400001360993ADE513789C46002B00D1F7E2BC
:104D500002235B4237E7202302009A43472A04D10B
:104D600080231B01194302239843452801D12023A6
:104D700019430722099B0491073393430A9A1900A8
:104D80000392424602920CC908980092019309913D
:104D90002A004B462100FFF76DF90136050080E53A
:104DA00010230C930C230A009A430B924B0503D556
:104DB00001230B9A9A430B92692800D127E66428B5
:104DC00000D124E60B9A802311009B0019408B46EA
:104DD0001A4200D066E1802311005B0019408A4628
:104DE0001A4200D039E213005B0600D53CE1130003
:104DF0001B0600D4A6E2099B04CB1204120C9346B6
:104E000009935B46002B00D09AE10B9A10331100F6
:104E100099430B91520500D492E100239A460B9BD3
:104E200006930A9B0593434604930C9B039300232C
:104E30000CE12023194360E6099B0A9A5B1B984604
:104E40004B4691461F00B2462600089C2A003B00B4
:104E50003100A04743460135585D0028F6D14A4647
:104E60003400B94656460A92F5E6C0239B00B07856
:104E7000194302365DE5C023B0781943023658E580
:104E80000C230A009A4314331A43103B0B920C93E1
:104E90004B058DD496E7A14634005646DBE60A9AC8
:104EA000012A00D853E26B1E9F18089BB0462600CB
:104EB0004C4699462A002300013531002020C8477E
:104EC000BD42F7D1A14634004646099B3A0001CBCA
:104ED000210098467D1C4B46089FC0B2B847434608
:104EE00001360993DDE40B9B0A9AA8469A4200D842
:104EF000B5E694466544ED1A089B4746B046260041
:104F00004C4699463A002300013731002020C8471B
:104F1000AF42F7D1A14634004646A0E60B9A0A9963
:104F2000531C914200D814E24B199B1A1F00089B96
:104F3000B24626004C4699462A002300013531002E
:104F40002020C847BD42F7D10A9BA14601330B93ED
:104F5000099B34001B7856469C466046002800D0CA
:104F600058E67CE60722099B0733934301329446B7
:104F70009C4462465F6809921A68FB17109311936C
:104F800010981199030053400E930B007B400F9330
:104F900094460E9A0F9B121A8B410E920F93FB0FA1
:104FA0006246129300233A439B463DD00B9A6123FD
:104FB000920600D541230022DBB20EA90A3B8C46A3
:104FC00092460D9343461F326244139515965546FB
:104FD0000E9E0F9FA24690460C9C14930CE030321C
:104FE000D2B2434601355A55BB4500D18AE1202D46
:104FF00000D18AE106000F002200002330003900B2
:1050000000F08CFAD2B2092AE9D90D9B9C46624481
:10501000D2B2E6E7FF23099904C913401A000991A7
:1050200017E5C046E93D00100B9A10331100994373
:105030000B915205BAD500239A460B9B06930A9B07
:105040000593434604930C9B0393129B0293534690
:10505000019316AB2A00009321004B460898FEF7F7
:1050600013FF013605001CE4FF22099B02CB11400F
:105070008B460993C5E65346454609930136FFF72B
:1050800010FC56465C46AA46139DD6E708230C93AF
:105090000B910B99642800D084E60B9B5B0500D52F
:1050A00086E6B4E40722099B073393430132944612
:1050B0009C44624609921A685B6810009B46130084
:1050C0005A46134307D10B9A1033110099430B91A1
:1050D000520500D5A1E60B9A6123920600D5412323
:1050E0000022DBB20EA90A3B8C4692460D93434642
:1050F0001F3262445F461295A34655460400B246ED
:1051000090460C9E13930DE03032D2B243460135E7
:105110005A550023BB4200D100E1202D00D100E10F
:1051200004000F00320000232000390000F0F6F9DF
:10513000D2B2092AE8D90D9B9C466244D2B2E5E777
:105140000B9A6123920600D54123DBB20EA90A3BDC
:105150001F228C460D93230062445C461295170073
:1051600055469B46B2460C9E08E03033DBB2013513
:105170007B55B4420ED3202D0CD00400310020000A
:1051800000F08AF9CBB20929EFD90D9A944663440D
:10519000DBB2ECE756465C46AA46129D3FE6099B09
:1051A0001A0008CAD91713925A184A409246DA0FC1
:1051B0001292002B08D1802310220B99DB000B40A8
:1051C00091430B91002B2BD10B9A6123920600D5B2
:1051D00041230EAA1F279446DBB20A3B0D95674474
:1051E0005D460993A3465446B2460C9E08E0303310
:1051F000DBB201357B55B4420ED3202D0CD0040018
:105200003100200000F048F9CBB20929EFD9099A02
:1052100094466344DBB2ECE756465C46AB460D9DD4
:105220000B9B2A0006930A9B210005934346049397
:105230000C9B08980393129B013602935B460193E3
:1052400016AB00934B46FEF71FFE139B0500099318
:10525000FFF727FB02230C931AE7099B04CB924626
:105260001293002A08D1802310220B99DB000B40F7
:1052700091430B91002B2BD10B9A6123920600D501
:1052800041230EAA1F279446DBB20A3B0D956744C3
:105290005D460993A3465446B2460C9E08E030335F
:1052A000DBB201357B55B4420ED3202D0CD0040067
:1052B0003100200000F0F0F8CBB20929EFD9099AAB
:1052C00094466344DBB2ECE756465C46AB460D9D24
:1052D0000B9B2A0006930A9B2100059343460493E7
:1052E0000C9B08980393002302935B46019316AB33
:1052F00000934B46FEF7C8FD129B0500099301364B
:10530000FFF7CFFAB44200D871E6149B54460E96CC
:105310000F97AA469846159E139D8EE6A64200D882
:10532000FBE6139B56469846AA465C46129D76E5D8
:1053300008C9D8171A1842400991FFF78AFB0023C1
:105340000B9350E4099B04CB9346099359E52F0036
:10535000BBE50B9301E6063B0C939AE60EB40122E3
:1053600010B585B007AC08CC010000945242044847
:105370000394FFF771FA05B010BC08BC03B01847DE
:10538000E13D001000B585B003910121029000932A
:10539000034813004A4202A9FFF75EFA05B000BDB8
:1053A0006540001010B5094A0300146884B0002C51
:1053B00008D0012200910648524203A9A0470120CB
:1053C00004B010BD02F010F80020F9E780120020B0
:1053D0005540001001480421014B1847600400208B
:1053E00005540010142310B50100188804331B88DD
:1053F000984710BD162310B50100188802331B888A
:10540000984710BDF8B54746CE4680B50F1E19D057
:1054100014239946043304000025012698464B4680
:105420001888434621681B88984701C4431E984149
:10543000013540420640AF42F1D13000C0BCB94610
:10544000B046F8BD0126F8E7124A936F9B0815D2C3
:105450009066D166002905D0FFE7FFE7FFE7516FAF
:10546000106F704704B580210906C217514000280B
:1054700000D0C84304F0FCFE002104BDF0B5146E5A
:10548000556E576F166FFFF7E3FF14665566576743
:105490001667F0BD000000D0114A936F9B0813D22D
:1054A00010665166002905D0FFE7FFE7FFE7516F5F
:1054B000106F704704B5002801D00020C04304F0ED
:1054C000D7FE002104BDC046F0B5146E556E576F6F
:1054D000166FFFF7E5FF1466556657671667F0BD50
:1054E000000000D094464E4A926F9208624601D264
:1054F00030E0C046F0B54A4EB56F6D08FCD3346E4F
:10550000756E776F366F00F025F89446444A14663E
:105510005566576716676246F0BDC0469446404AD6
:10552000926F9208624601D258E0C046F0B53C4EF8
:10553000B56F6D08FCD3346E756E776F366F00F003
:105540004DF89446364A14665566576716676246A4
:10555000F0BDC046002B24DB11D000293EDA00B597
:10556000C943404200D1013100F038F8C9434042FC
:1055700000D10131DB43524200D1013300BD002A8A
:10558000EBD1002801D1002905D00020C90FC9079F
:1055900001D1C043410800B504F062FE002200239F
:1055A00000BD00B500290ADBDB43524200D10133C4
:1055B00000F014F8C943404200D1013100BDC94395
:1055C000404200D10131DB43524200D1013300F0AF
:1055D00005F8DB43524200D1013300BD002923D13D
:1055E000002B18D1002A0CD0BC460D4F38667A66C5
:1055F00000210023FFE7FFE7FFE77A6F386F674678
:105600007047002801D00748010000B504F028FECB
:105610000022002300BD02000B0000200021704783
:10562000000000D0FFFFFFFF002B00D0BFE0130CF5
:1056300028D1002AE7D080B4114F39667A66FFE797
:10564000FFE730B4040C7B6F396F1B0423433B66C8
:105650007A66FFE7FFE7FFE7C04684B27B6F3D6FE6
:105660001B0423433B667A66FFE7FFE7C04600233F
:105670002C042D0C7A6F386F00196941B0BC70474B
:10568000000000D0F0B594460025140E01D112029E
:105690000835140F01D112010435940F01D1920085
:1056A0000235D40F01D152000135D40B0134254FFE
:1056B0007C66254C3C660E0C93B2FFE7FFE7FFE7E4
:1056C0003C6F6643360C7703BE467343DF0B5B04C7
:1056D000C01AB941130C7343DB18C91ACE086643CC
:1056E000360CB64493B273431F0F1B01C01AB94165
:1056F000130C73431F0B1B05C01AB941860D8F0293
:105700003E436643360C092D24DB520A7243801A4D
:105710007703460A6643360C16235B1BDE40DF40E8
:10572000BF1964466643821B704604350633010088
:10573000D940A840C01900D30131A24206D20023AB
:10574000F0BD0000000000D0FFFFFFFF121B013082
:10575000F3D3F1E709277F1BFE406446A2B27243F0
:10576000801A00D20139220C7243130C1204821ADF
:1057700099410B007046043513370100F940A840E9
:10578000801900D30131002B02D1A2420AD2F0BD10
:10579000013000D30131121BFAD2013BF8D1A242F1
:1057A00000D2F0BD013000D30131121BF7E7F0B594
:1057B0001C0C00D080E00CB400251C0A04D11B0294
:1057C000160E3343120208351C0B04D11B01160FB1
:1057D0003343120104359C0B04D19B00960F3343D5
:1057E00092000235DC0B02D192185B4101351C009E
:1057F000971864410134464F7C66464C3C660E0C5B
:10580000FFE7FFE7FFE7C0463C6F6643360C7703D0
:10581000BE4697B27743C01B00D20139C01B00D2ED
:1058200001399FB27743C91BC91B170C77437E040C
:10583000FF0B801BB941CE086643360C0C2D33DBC1
:10584000B644120B1F053A431B0B97B27743C01B9C
:1058500000D201399FB27743C91B170C77433E042E
:105860003F0C801BB941860D8F023E4366432927BA
:105870007F1BFE400C3D7746AF40BF1930BCA2B243
:10588000ABB272437343801A9941220C7243130CDA
:105890001204801A994102000B000137001BA94134
:1058A000F9D2781E0021F0BD0C277F1BFE40774601
:1058B0007F0BAF40FF19E0E700245D1C07D0144FB9
:1058C0007D663966FFE7FFE7FFE7FFE73C6F95B2CC
:1058D0009EB265436643401BB141150C1E0C6543E7
:1058E000664336042F0C3E432D04401BB1419942C0
:1058F00004D202000B0020000021F0BD01D1904233
:10590000F7D3801A994101349942F2D3F6E70000A7
:10591000000000D0FFFFFFFF48404140484018B45E
:105920001B4B5B68FC46019308BD04DF0366001057
:1059300018B4174B1B68FC46019308BD00DF0D66C9
:1059400000109446134A926F920809D2624618B426
:105950000F4BDB68FC46019308BD0CDFC5680010E7
:105960000C4AF0B5146E556E576F166F6246FFF70E
:10597000EEFF084A1466556657671667F0BD18B4FF
:10598000034B9B68FC46019308BD08DF6967001064
:10599000F0050020000000D0FFB5504042405040CC
:1059A00059404B40594000E0FFB5154F4C00640D85
:1059B00003D0BC4204D10C0314D80020090D090502
:1059C0005C00640D03D0BC4204D11C030AD8002241
:1059D0001B0D1B0501264B4009D44B4003D58B42C0
:1059E00000D18242FFBD9942FCD19042FFBD0B43E2
:1059F000DB1803431343F5D0C9434918FFBD00002A
:105A0000FF07000000B5FFF7CFFF01D0002000BD69
:105A1000012000BD00B5FFF7C7FF804100BDC046B3
:105A200000B5FFF7C1FF01D9002000BD012000BD76
:105A300000B5FFF7B1FF01D9002000BD012000BD76
:105A400000B5FFF7A9FF804100BD012040054A00D5
:105A5000121804D85A00121801D8002070470120EB
:105A600070470020704700000021002805D17047D2
:105A7000C1174840401AFAD0C90713B5064B1B6836
:105A800098470CBC441CA2401005120B0349091B8B
:105A900009051943114310BDD41200201F04000052
:105AA00010B54C00620D8023D218DB00D21A5B05C2
:105AB0007E2A10DD9E3A13DACC17090349081943F0
:105AC0005242D140640001341532202A05DAD04018
:105AD0000843604310BD002010BD0846604310BD60
